:020000040000fa
:080000000002040000000000f2
:020000040000fa
:100400008f5c21000e7f22000e018800000000009a
:100410000c000700408124000100200011000700ab
:10042000000020000000e000020032000000020096
:100430000000000050440200000000000040da000c
:100440000000fe004440a900000020000000e00081
:100450000300320000002000a00188004440a800f2
:100460000000060091018800800078000000eb0089
:1004700015003700e280400032a0b4009101ba00bc
:10048000e280400032a0b4009102ba00e280400055
:1004900032a0b4000002eb00472bde00f507b200eb
:1004a000602ce10004003a000059eb008301e900f0
:1004b000fdff3e00040037006128e100010032002a
:1004c0000082eb00040007001101ba000200e00006
:1004d000e8ff3a00000006003159ba008301e90044
:1004e0000c0032002159ba008301e90008003200f3
:1004f0000400e00003003a00e280400032a0b400b3
:10050000f5ff370011d9ba008301e900faff3a007c
:100510008100e800e180400032a0b4000000060045
:1005200000000000000000000000000000000000cb
:1005300000000000000000000000000000000000bb
:1005400000000000000000000000000000000000ab
:10055000000000000000000000000000000000009b
:10056000000000000000000000000000000000008b
:1005700000000000000000000040da000000fe0063
:100580006022b800060220000000d0008180d20066
:100590000482d2008582d2000000a0000202520034
:1005a00083825a00030031000202420083824a0023
:1005b0000000a1000603e900f3ff3a000000060076
:1005c000889fbe008a9fbe008c9fbe0000017800fd
:1005d000419920001100e0000b003a0080992000b2
:1005e000a04c8800804c8800c14c8800914c880049
:1005f000214090000004a000a040980061409000bd
:100600000004a000e0409800e7004100c208de00be
:10061000c20cdd00944c80000da12000805c210004
:100620000d05500022002000811f780011000900f4
:100630000205d80000067800cf007800c308dd006e
:10064000e48540008001eb0006a1200045992000d0
:100650000100370001027800244090000008a30048
:10066000020032000a003700110a78009400780076
:10067000214090000008a300fbff32000901420066
:10068000828f500002003900840f51004600310073
:1006900094007800848f5000eeff3e00868f50005b
:1006a00002003900858f5000eaff3900804c80003d
:1006b000800f52004f003a00858f50004d003a00e5
:1006c0008301e800e18f5100e2ff36008c8f540077
:1006d000040036008a8f5400020031000b047800b9
:1006e00012003700614ab8006151b900b0ff2f0015
:1006f000010020000200500083805800800f52004b
:10070000818f5a0002003500090478000700370085
:100710000d805400b25c210002004000110009006d
:100720000a80d8000a80b900000478000800780028
:100730006f00070080017800e10f40002d003200bb
:10074000804c800003087800824c800064004100e7
:10075000a2409000808f5100020032000104a000ee
:10076000010037000104a1002141980008804100e8
:100770006400500080097800804c88004299200075
:1007800002087800814c8000214090000004a00005
:10079000a0409800234090000004a100a0419800d0
:1007a00002027800a7ff3700924c8800828f500029
:1007b0000900360092007800e0982000a2419000e5
:1007c00003487800614c8800140978008040eb00f1
:1007d000904c800021409800904c8000000a7800e6
:1007e000244090000004a0002042980064004200d1
:1007f000010037000000eb004f06be004f05be00b1
:100800004f04be000000060064005000904c8800b9
:10081000a04090000104a1002140980000000600c3
:10082000889fbe008a9fbe0000057800e40150004a
:1008300013001000c285de00234090000008a300d2
:1008400004003200934c8800234090000004a10073
:10085000a04198000100780059ff070000047800cb
:100860000000e000170032008a0f5000150032002f
:1008700060b8970008005000c284de00898f5500e0
:1008800001003600890578004259dd008a007800b1
:10089000080078000f0007008a0f5400090031009b
:1008a0004248dd00000044008a0f50000500360079
:1008b0000a00500000004400624c8000734c80002d
:1008c0000288be00080078004f05be004f04be003d
:1008d000000006008001eb000200370061f07900a3
:1008e0008301e800828f5100fcff3a0000000600ff
:1008f000889fbe0080047800e04c80000000e0008b
:1009000003003a00100007000000e0000a00350074
:10091000e04c80000900e00002003a00000478008a
:1009200006003700000478000900400006000700b8
:100930000000e00001003d000084eb0008007800aa
:100940004f04be0000000600800078000000e000b8
:1009500004003a0000a12000e04c8800010178006a
:10096000060037000081eb00805c2100808f500082
:1009700002003e00e14c88000001eb00020078001c
:04098000000006006d
:020000040000fa
:020000040001f9
:0457f00033ff000083
:020000040000fa
:020000040001f9
:0457f400c0fc0000f5
:020000040000fa
:020000040001f9
:0457f8008f19000005
:020000040000fa
:020000040001f9
:0457fc00603f00000a
:020000040000fa
:10000800bc020000bc0200003c4400004644000062
:10001800bc020000bc020000bc020000bc020000e0
:10002800bc020000bc020000bc020000bc020000d0
:10003800bc020000bc020000bc020000bc020000c0
:10004800bc020000bc020000bc020000bc020000b0
:10005800bc020000bc020000bc020000bc020000a0
:10006800bc020000bc020000bc020000bc02000090
:10007800bc020000bc020000bc020000bc02000080
:10008800bc020000bc020000bc020000bc02000070
:10009800bc020000bc020000bc020000bc02000060
:1000a800bc020000bc020000bc020000bc02000050
:1000b800bc020000bc020000bc020000bc02000040
:1000c800bc020000bc020000bc020000bc02000030
:1000d800bc020000bc020000bc020000bc02000020
:1000e800bc020000bc020000bc020000bc02000010
:1000f800bc020000bc020000bc020000bc02000000
:10010800bc020000bc020000bc020000bc020000ef
:10011800bc020000bc020000bc020000bc020000df
:10012800bc020000bc020000bc020000bc020000cf
:10013800bc020000bc020000bc020000bc020000bf
:10014800bc020000bc020000bc020000bc020000af
:10015800bc020000bc020000bc020000bc0200009f
:10016800bc020000bc020000bc020000bc0200008f
:10017800bc020000bc020000c82e0000bc02000047
:10018800bc020000bc020000bc020000bc0200006f
:10019800bc020000bc020000bc020000bc0200005f
:1001a800bc020000bc020000bc020000bc0200004f
:1001b800bc020000bc020000bc020000bc0200003f
:1001c800bc020000bc020000bc020000bc0200002f
:1001d800bc020000bc020000bc020000bc0200001f
:1001e800bc020000bc020000bc020000bc0200000f
:0801f800bc020000bc02000083
:020000040000fa
:10020800bc020000bc0200003c4400004644000060
:10021800bc020000bc020000bc020000bc020000de
:10022800bc020000bc020000bc020000bc020000ce
:10023800bc020000bc020000bc020000bc020000be
:10024800bc020000bc020000bc020000bc020000ae
:10025800bc020000bc020000bc020000bc0200009e
:10026800bc020000bc020000bc020000bc0200008e
:10027800bc020000bc020000bc020000bc0200007e
:10028800bc020000bc020000bc020000bc0200006e
:10029800bc020000bc020000bc020000bc0200005e
:1002a800bc020000bc020000bc020000bc0200004e
:1002b800bc020000bc020000bc020000bc0200003e
:1002c800bc020000bc020000bc020000bc0200002e
:1002d800bc020000bc020000bc020000bc0200001e
:1002e800bc020000bc020000bc020000bc0200000e
:1002f800bc020000bc020000bc020000bc020000fe
:10030800bc020000bc020000bc020000bc020000ed
:10031800bc020000bc020000bc020000bc020000dd
:10032800bc020000bc020000bc020000bc020000cd
:10033800bc020000bc020000bc020000bc020000bd
:10034800bc020000bc020000bc020000bc020000ad
:10035800bc020000bc020000bc020000bc0200009d
:10036800bc020000bc020000bc020000bc0200008d
:10037800bc020000bc020000c82e0000bc02000045
:10038800bc020000bc020000bc020000bc0200006d
:10039800bc020000bc020000bc020000bc0200005d
:1003a800bc020000bc020000bc020000bc0200004d
:1003b800bc020000bc020000bc020000bc0200003d
:1003c800bc020000bc020000bc020000bc0200002d
:1003d800bc020000bc020000bc020000bc0200001d
:1003e800bc020000bc020000bc020000bc0200000d
:0803f800bc020000bc02000081
:020000040000fa
:100984000600fa002047980031479800f18a2000b9
:10099400914078002e40900080cf50000300320038
:1009a4006000200020079800140037003e409000ab
:1009b400190a0700000f78001e00e0000d00320045
:1009c4001e017800a2409000f0cdb30000c060008a
:1009d400204198001e017800a2409000f0cbb300a3
:1009e40000c06000204198000000eb002007980040
:1009f4000200370040012000200798002e009000dc
:100a04000080fa00000006000200fa00004f78009f
:100a1400bac8bf000080fb004600de0061406000f1
:100a24000080fb000080fa00000006000400fa00c9
:100a3400004f78002045800001f020000100600094
:100a44000000e00003003a001003200010079800a3
:100a54001d0037002145800000f0200080806000e8
:100a640000402000808f50000b003a002045800099
:100a7400010f200001006000f00f500003003a0055
:100a8400a0032000100798000f0037000003200087
:100a9400100798000c0037002145800000f020006a
:100aa4008080600000502000808f500004003a00d5
:100ab400b0c8bf000080fb00100798000200370098
:100ac40020032000100798001e0090000080fa0008
:100ad400000006000600fa00008fbe00c04580003a
:100ae4000000e0000d003a0020022000b3fe0700e1
:100af400c0458800c04580000000e00003003a00c3
:100b04000000eb002007980018003700c145800062
:100b14000000eb008008780001003700a90f0700ef
:100b2400c0458000104588000000eb002045880087
:100b34000080eb00a04788000040eb00aee8b7005f
:100b44000040eb00afe8b700f208a8004000200026
:100b5400e045880040002000f04588000000eb00dc
:100b64000046880010002000200798002e00900006
:100b74000080fa00000006001600fa0060479800a2
:100b840071479800024f9800530798006407980033
:100b940075079800060f980027579800f18a2000df
:100ba400914078006e40900080cf500003003200e6
:100bb40060002000200f98009a0037002145800033
:100bc40000f020008080600000402000808f5000f2
:100bd4000300320011002000210f9800910037001b
:100be400c045800030409000624060000004e00096
:100bf40003003a0000012000200f9800890037000c
:100c04000e489000eb4f500042003a00b14580007e
:100c140011079800030037001e0090009000780030
:100c2400110798001e0090000000e000060032004a
:100c34001e009000604090008080fb006e009000d9
:100c4400808f5000f4ff3a001e0090000000e00086
:100c5400040032001e009000200090000000e0001c
:100c640003003a0030002000200f98006d00370088
:100c74001e00900020009000a00090002107980022
:100c84000b0037002e00900030409000624060005e
:100c94000004e00003003a0030002000200f980018
:100ca400600037002e009000900078002107980023
:100cb4002e0090000000e000f2ff3a001e009000b9
:100cc40090009000010f7800020037001e007800a9
:100cd400100f78001e00e000060032001e007800ad
:100ce400204090008080fb005e009000808f5000c8
:100cf400f6ff3a001e00e00003003a003000200036
:100d0400200f9800470037001e0090009e007800d6
:100d1400210098000e489000e14f50000a003a006c
:100d24005e0090000000e00007003a007e40900062
:100d34000080fb0060004000e20f500002003e0013
:100d44006e009000c2120700b0448000fe40900084
:100d540001487800b04480000000e8008e4890000c
:100d640001487800b04480008080e8005e00900074
:100d740080487800b0448000e30040005e009000aa
:100d84004800de0080487800b0448000e400400061
:100d94006e00900080487800b0448000e500400078
:100da4006e0090004800de0080487800b044800067
:100db400e60040007e00900080487800b044800047
:100dc400e70040007e0090004800de008048780084
:100dd400c04580008ef89700115898002e5090005e
:100de4000004e00007003a00b1448000c0458000e0
:100df4007e0290008e09900082002000580f0700a8
:100e040006003700b1448000c04580007e02900097
:100e14008e099000820020000f0f07000000eb00f5
:100e2400200f98002e0890000080fa0000000600b1
:100e34000c00fa00204798003147980022079800d8
:100e44003407980045079800f18a20009140780003
:100e54002e40900080cf500003003200600020003c
:100e6400500798003f0037002145800000f0200023
:100e74008080600000402000808f5000030032001a
:100e84001000200050079800360037003e409000c4
:100e9400e1080700000f78001e00e0002f00320078
:100ea4001e007800d0089000003020000080600010
:100eb4000000e00003003a00800120005007980081
:100ec400280037001e007800205890000004e0003d
:100ed400030035005001200050079800210037001e
:100ee4001e007800204090000042b2000004e000a0
:100ef4000300320010012000500798001900370049
:100f04001e007800204090000044b2000004e0007d
:100f14000300320020012000500798001100370020
:100f24001e00780030409000624060000004e00041
:100f340003003a0000012000500798000900370020
:100f44003e019000ae0090001e0078004d0f070097
:100f54000000eb0050079800020037004001200019
:100f6400500798005e0090000080fa000000060020
:100f74000400fa00004f7800afc8bf009e4f500035
:100f84000300320060002000100798000c003700b6
:100f94002045800001f02000010060000000e00016
:100fa40003003a00300020001007980004003700c6
:100fb4000000eb00204588000000eb0010079800bb
:100fc4001e0090000080fa00000006000400fa00f1
:100fd400004f7800afc8bf009e4f5000030032009e
:100fe40060002000100798000c00370021458000a5
:100ff40000412000808f50000300320030002000a8
:101004001007980005003700204580000000e80024
:10101400204588000000eb00100798001e00900097
:101024000080fa00000006000400fa00004f780077
:1010340011479800afc8bf009e4f50000300320014
:101044006000200010079800180037002145800038
:1010540000f020008080600000402000808f50005d
:101064000300320010002000100798000f00370022
:10107400151307000000e0000300320020002000e8
:1010840010079800090037001e409000ace8b70034
:10109400c045800080c0eb00115898000033200048
:1010a400204588000000eb00100798001e00900007
:1010b4000080fa00000006000a00fa0020479800a9
:1010c400314798002207980033079800f18a2000de
:1010d400914078002e40900080cf500003003200f1
:1010e4006000200040079800190037003e4090003f
:1010f40049080700000f78001e00e00012003200cb
:101104002e0090006140600061406000614060001a
:101114001e01780061406000c501dd00b24090000e
:10112400f0cdb30000c0600003407000304198006f
:101134001e007800be009000011098000000eb0033
:101144004007980002003700410120004107980041
:101154004e0090000080fa00000006000200fa0031
:101164000000eb0040248800afc8bf000004e0008a
:101174000d0032000040eb00004f7800afc8bf0004
:1011840024002000050020000e017800a1062000a4
:10119400071f0700afc8bf0013002000f28a200019
:1011a400110720004d0f07006000b80049fe07003a
:1011b4000080fa00000006000400fa00004f7800e6
:1011c400afc8bf009e4f50000300320060002000f3
:1011d400100798000c0037002145800000402000d3
:1011e400808f500003003200300020001007980068
:1011f400050037009404a900004120002045880020
:101204000000eb00100798001e0090000080fa0018
:10121400000006003000fa00881f7800390037000b
:10122400f0458000e20f500007003c00f0458000cc
:101234006c00b90080007800e08c200080804000c1
:101244007117980002003700208c20007017980056
:10125400fe109000110798001e0090001000780006
:101264006017980020072000ee109000808f500037
:1012740005003200f0ff2700ee109000808f500030
:1012840001003200070037001e0090000081e800d2
:101294001e00900090007800afc8bf00a30020009b
:1012a4000e0f070060248000000f78000000eb00a0
:1012b40060248800004680000000e90000468800a1
:1012c400f0458000e20f500004003c00f04580002f
:1012d4000000e800f0458800020037000000eb0041
:1012e400f0458800f04580006c00b900800078006b
:1012f400208c200000804000100798009e00780099
:1013040061248800004680000000e000c4ff3a0029
:10131400a0478000e10f400004003200a047800095
:10132400204588000080eb00a0478800204580000d
:1013340001f02000010060005017980000202000f8
:10134400de109000808f50006102320000202000e7
:10135400de109000808f500008003e005e10900068
:101364000000e0001200320000102000de109000a7
:10137400808f5000b7003200c405370000402000c1
:10138400de109000808f50003005320000502000a5
:10139400de109000808f500069053200003020007c
:1013a400de109000808f5000a7023200b70537008e
:1013b40021458000000f20008080600041179800c4
:1013c4004e109000f00f50006a003200000220001e
:1013d400ce109000808f5000700032004e109000ac
:1013e4000000e00001003200a80537005bff0700a1
:1013f400c14580000000eb0080087800c1458000f2
:101404000000eb0090009800c1458000314090003e
:101414000024a000b0409800c145800031409000f5
:101424000014a000b0409800c2458000b240900073
:1014340000c2b30000c0700030419800c145800074
:101444004001200080109800c14580000004200065
:10145400c0009800c24580006000b80000099800f0
:1014640011099800c14580000040eb00a058980085
:10147400c14580000040eb0080589800c2458000c0
:10148400d2089000f0cf2f0000806000500998002f
:10149400c145800000c0eb009058980030c0b300f4
:1014a4009ee8b7000040eb00ace8b7000040eb005a
:1014b400ade8b7000040eb00aee8b7000000eb0079
:1014c400d04588000000eb00b04588000000eb0028
:1014d400304588000000eb0060248800f00f2000f5
:1014e4005024880011248000c0082000008060007f
:1014f40010248800d0072000002488000000eb009e
:1015040080248800f00f20007024880000a02000b0
:101514004800de00c024880080002000a024880049
:10152400a0002000a024880080002000a0248800bf
:10153400000320003024880020002000302588008b
:101544000000eb00402588000000eb00b024880078
:10155400aae4a900a00420000025880021458000f9
:1015640000ff2000008060007000400020458800db
:1015740046053700f2c8bf00614060000004e00087
:10158400420532002145800000ff200000806000f9
:1015940070004000204588003c053700ea00470001
:1015a4000040eb0080487800ea00470020c3b30005
:1015b400904098006a0147002400200005002000a4
:1015c4009106200000c0eb00f91d07000000e000b8
:1015d4001c003200100020004024880071048000a8
:1015e400f0fb2f000080600070048800710680000a
:1015f400f00f2f00008060007006880071068000e4
:10160400006020000080700070068800f1048000f3
:101614000004200000807000f00488002145800050
:1016240000ff20000080600070004000204588001a
:101634008cc4a800000420000024880082c4a800f0
:1016440012053700f208a900000120002045880097
:101654000e05370020458000010f200001006000c6
:101664003017980000022000be109000808f5000b8
:10167400b000320000022000be109000808f5000a5
:1016840007003e003e1090000000e0000d00320014
:10169400be109000f08f500029003200fb04370088
:1016a40000032000be109000808f500028013200fb
:1016b40000042000be109000808f50007d01320095
:1016c400f2043700204580006f0060002017980066
:1016d4002e109000e10f5000ec043200ae10900088
:1016e400e18f5000040039002e109000e20f5000ea
:1016f4000d003200e504370010002000502488005b
:101704008c04a800b00f20000045880000042000cd
:101714000024880082c4a800204580000000e8005e
:1017240020458800d90437002145800000ff2000af
:10173400008060007000400020458800d30437001a
:10174400204580006f006000101798009e109000e4
:10175400e28f5000620032001e109000e20f500031
:1017640004003e009e1090000100e00008003200da
:10177400c60437001e109000e30f5000c30432006b
:101784009e109000e48f500060003200bf043700c8
:10179400b04480000000e00004003200b044800047
:1017a40018fc07000000eb00b04488008000200013
:1017b40082fb0700b0448800b04480000000e000d1
:1017c40005003a0030c3b300b0e8b7000050200071
:1017d40020458800ad0437000040eb00ace8b700ba
:1017e4000040eb00ade8b7000000eb00d0458800f6
:1017f40030c0b3009de8b700d00020005025880019
:101804000000eb00602588000000eb0070258800d4
:101814000000eb00802588000000eb009025880084
:101824000000eb00a02588000000eb00b025880034
:101834000000eb00c02588000000eb00d0258800e4
:101844000000eb00e02588000000eb00f025880094
:101854000000eb00002688000000eb001026880042
:101864000000eb00202688000000eb0030268800f2
:101874000000eb0040268800414920009140780098
:1018840000c8b30000c060000004e00006003a0095
:10189400ba08a80000c8b300aee8b70000082000ea
:1018a400b0248800aae4a8009424a8009424a900e1
:1018b400ba88a900baa8a9009484a800300320001b
:1018c40000458800000420000024880082c4a80089
:1018d400204580000000e800204588006b043700a4
:1018e4009484a9009404a800b00020000045880056
:1018f400000420000024880082c4a8002045800041
:101904000000e8002045880060043700f000200053
:1019140060248800f00f2000802488002145800086
:1019240000ff200000806000700040002045880017
:1019340056043700204580006f00600000179800af
:101944000e109000e10f5000390032008e1090000c
:10195400e18f5000040039000e109000e20f500097
:101964004d00320049043700504c80000000e00074
:1019740004003200504c8000a2fb07000000eb0082
:10198400504c8800b144800000c8b30080487800ff
:10199400b04480008000e80060c0b3008048780054
:1019a400b04480008080e8000040eb00804878006c
:1019b400b0448000e300400010c0b30080487800c9
:1019c400b0448000e40040000040eb008048780010
:1019d400b0448000e50040000040eb0080487800ff
:1019e400b0448000e600400080c0b3008048780026
:1019f400b0448000e70040000040eb0080487800dd
:101a0400b0448000b1448000c545800084002000bb
:101a14008001780082002000050078000e0c070089
:101a2400204580000000e8002045880017043700a6
:101a3400c045800030409000624060000004e00037
:101a440012043200c04580003040900061406000c4
:101a54000004e0000e003200b04480006400400046
:101a640010407800e94f500005003a0050c3b3001d
:101a7400b0e8b70000502000204588000304370078
:101a8400204580000000e80020458800ff0337005f
:101a9400d5040700fd033700b044800010407800ef
:101aa4000080fb00c5fa0700504c8800504c8000b1
:101ab4000000e00005003a0030c3b300b0e8b7000e
:101ac4000050200020458800f0033700514c80006e
:101ad400b04480001040780080487800c145800000
:101ae400b0448000704090000080fb00c00098006b
:101af400b044800043fb07000000eb00b0448800c2
:101b0400c045800040009000acfa0700b044880053
:101b1400b04480000000e00005003a0030c3b30088
:101b2400b0e8b7000050200020458800d7033700f4
:101b340030c0b3009de8b7002145800000ff2000bd
:101b4400008060007000400020458800cf0337000b
:101b5400204580006f006000700f9800fe08900020
:101b6400e18f50003b0032007e089000e10f5000ee
:101b740004003900fe089000e28f50004500320056
:101b8400c2033700a6c8bf00704060000004e00034
:101b9400be033a00b144800000c8b3008048780016
:101ba400b04480008000e80060c0b3008048780042
:101bb400b04480008080e8000040eb00804878005a
:101bc400b0448000e300400010c0b30080487800b7
:101bd400b0448000e40040000040eb0080487800fe
:101be400b0448000e50040000040eb0080487800ed
:101bf400b0448000e6004000504c80001040780063
:101c040080487800b0448000e70040000040eb00ca
:101c140080487800504c8000104078000080fb0021
:101c2400514c8000b5448000c64580000002780015
:101c34008101780082002000850078000600780089
:101c4400850b0700204580000000e800204588003f
:101c54008e033700c0458000304090006240600031
:101c64000004e00089033200c04580003040900049
:101c7400614060000004e000040032002045800060
:101c84000000e80020458800800337005604070060
:101c94007e03370030c0b3009de8b70021458000c3
:101ca40000ff200000806000700040002045880094
:101cb40076033700d20407002145800000f020009d
:101cc400008060000010b000204588006f033700da
:101cd40020458000010f2000010060000000e000aa
:101ce4000100320069033700204580006f00600066
:101cf400600f98006e089000e10f5000320032002f
:101d0400ee089000e18f5000040039006e08900046
:101d1400e20f50003c0032005c03370010c0b300f7
:101d2400afe8b700b14480000040eb008048780081
:101d3400b04480008000e80050c0b30080487800c0
:101d4400b04480008080e800afc8bf0080487800bd
:101d5400b0448000e30040000040eb00804878007d
:101d6400b0448000e40040000040eb00804878006c
:101d7400b0448000e50040000040eb00804878005b
:101d8400b0448000e60040000040eb00804878004a
:101d9400b0448000e70040000040eb008048780039
:101da400b1448000c04580000002eb008001eb00dc
:101db400820020006a0b0700204580000000e80034
:101dc4002045880031033700c04580003040900032
:101dd400624060000004e0002c033200c045800033
:101de40030409000614060000004e00004003200d4
:101df400204580000000e8002045880023033700c8
:101e0400f903070021033700bac8bf00614060002e
:101e14000080fb004700dd0080407800afc8bf00b1
:101e240000c07000aee8b70030c0b3009de8b70052
:101e34002145800000f02000008060000010b00008
:101e4400204588001103370020458000010f200041
:101e540001006000500f980000022000de0890008e
:101e6400808f5000c800320000022000de0890007d
:101e7400808f500007003e005e0890000000e000e4
:101e84000d003200de089000f08f50002600320072
:101e9400fe02370000032000de089000808f50000f
:101ea4002501320000042000de089000808f5000dd
:101eb400d0013200f5023700504c800010509000e1
:101ec4009ce8b7000f003700a04580001000900088
:101ed40030079800a04580001000780049fa0700f8
:101ee400a14580000000eb0080087800a045800038
:101ef40044fa07000000eb00a04588003e00900073
:101f0400a0458800a04580000000e000eeff3a00f4
:101f14002145800000ff2000008060007000400028
:101f240020458800d9023700204580006f006000fa
:101f3400400f98004e089000e10f5000330032002b
:101f4400ce089000e18f5000040039004e08900044
:101f5400e20f50003d003200cc023700b144800053
:101f640000c8b30080487800b04480008000e800d6
:101f740060c0b30080487800b04480008080e800ee
:101f84009cc8bf000040e90080487800b04480004d
:101f9400e300400020c0b30080487800b0448000d3
:101fa400e40040000040eb0080487800b04480002a
:101fb400e50040000040eb0080487800b044800019
:101fc400e600400080c0b30080487800b044800040
:101fd400e70040000040eb0080487800b0448000f7
:101fe400b1448000c5458000840020008001780051
:101ff4008200200005007800970a07002045800031
:102004000000e80020458800a0023700c045800099
:1020140030409000624060000004e0009b02320007
:10202400c045800030409000614060000004e00042
:1020340004003200204580000000e80020458800ac
:102044009202370068030700900237006000200006
:102054005af90700300798003e0090000000e000a5
:1020640005003a0030c3b300b0e8b70000502000c8
:1020740020458800850237003e049000b04480006b
:1020840063004000104078000080fb00c800dd00c1
:10209400b04480000080e800104078000080fb001d
:1020a4000080400045f90700000c78001800780013
:1020b4000000e00009003a003e009000d1f907005a
:1020c4000000eb003007980030c3b300b0e8b7005d
:1020d40000502000204588006c0237003e0090002c
:1020e4001000780000017800b044800063004000d4
:1020f400104078000080fb00c800dd00b044800080
:102104000080e800104078000080fb0080814000df
:10211400f00f200080806100224090006040600049
:102124000140700020419800c818de003240900041
:10213400604060000140700030419800be00900093
:10214400a0458000900098003e009000a0458800c3
:102154003e00900010007800404c8800be009000c3
:102164009cc8bf00c040980030c0b3009de8b700d1
:102174002145800000ff20000080600070004000c6
:102184002045880041023700204580006f00600030
:10219400300f9800be089000e18f500045003200d7
:1021a4003e089000e10f500004003900be08900082
:1021b400e28f50004f00320034023700b1448000f7
:1021c40000c8b30080487800b04480008000e80074
:1021d40060c0b30080487800b04480008080e8008c
:1021e4009cc8bf000040e90080487800b0448000eb
:1021f400e300400020c0b30080487800b044800071
:10220400e40040000040eb0080487800b0448000c7
:10221400e50040000040eb0080487800b0448000b6
:10222400e6004000a0458000100078000080e8002f
:102234001040780080487800b0448000e7004000f7
:10224400a045800010007800630040001040780032
:1022540080487800a0458000100078008000780055
:10226400214090000081fb00314090000080fb0081
:102274004800dd000200700080007800a045800066
:1022840010007800b5448000c64580000102780043
:102294008001780082002000850078000600780024
:1022a400ed090700204580000000e8002045880073
:1022b400f6013700c0458000304090006240600065
:1022c4000004e000f1013200c0458000304090007d
:1022d400614060000004e0000400320020458000fa
:1022e4000000e80020458800e8013700be0207002e
:1022f400e601370030c0b3009de8b7009cc8bf00ba
:102304000040e9009ce8b7009cc8bf000004e0005e
:10231400030032000031200020458800db01370033
:102324002145800000ff2000008060007000400014
:1023340020458800d5013700204580006f006000eb
:10234400200f98002e089000e10f50004a00320040
:10235400ae089000e18f5000070039002e0890006d
:10236400e20f500081003200ae089000e38f50006d
:102374008e003200c501370058090700acc8bf0001
:102384000004e00011003a00a0458000d044880019
:102394000a003700d044800010007800404c8800c8
:1023a400420b07000000e0001f003a004b09070041
:1023b400d044800010009000d0448800d0448000b5
:1023c4000000e000f3ff3a0017003700a04580004a
:1023d400d044880003003700d044800010009000ef
:1023e400d0448800d04480000000e00005003200a2
:1023f400d0448000c0409000acc8bf0080cf5000e3
:10240400f5ff3a00d044800010007800404c88006a
:10241400260b07000000e00003003a002f09070024
:102424000000eb00d0448800bac8bf0064406000dc
:102434000004e0000c003200d04480000000e00002
:1024440005003a0040c3b300b0e8b70000502000d4
:10245400204588008d013700204580000000e800f9
:102464002045880089013700204580000000e800ed
:102474002045880085013700bac8bf006440600069
:102484000004e00033003a00ba48a800b1448000d8
:102494000040eb0080487800b04480008000e800f1
:1024a40030c0b30080487800bac8bf0068406000fc
:1024b4000004e00005003200b04480008080e800a1
:1024c40030c0b3008048780004003700b044800076
:1024d4008080e80040c0b30080487800b0448000a9
:1024e400e30040000040eb0080487800b0448000e6
:1024f400e40040000040eb0080487800b0448000d5
:10250400e50040000040eb0080487800b0448000c3
:10251400e60040000040eb0080487800b0448000b2
:10252400e70040000040eb0080487800b1448000a0
:10253400c04580000002eb008001eb008200200017
:1025440087090700204580000000e8002045880036
:102554004e0137002145800000ff2000008060000c
:10256400700040002045880048013700c0458000c5
:1025740030409000624060000004e00043013200fb
:10258400c045800030409000614060000004e000dd
:1025940004003200204580000000e8002045880047
:1025a4003a013700100207003801370030c0b30089
:1025b4009de8b700d04480000000e00005003a0028
:1025c40040c3b300b0e8b7000050200020458800a5
:1025d4002e01370030c0b3009de8b70021458000cc
:1025e40000ff20000080600070004000204588004b
:1025f40026013700204580006f006000100f98000e
:102604001e089000e10f5000330032009e08900035
:10261400e18f5000070039001e089000e20f5000bf
:102624003d0032009e089000e38f500040003200cd
:1026340016013700b14480000040eb008048780068
:10264400b04480008000e80090c0b3008048780067
:10265400b04480008080e800acc8bf0080487800a7
:10266400b0448000e30040000040eb008048780064
:10267400b0448000e40040000040eb008048780053
:10268400b0448000e50040000040eb008048780042
:10269400b0448000e60040000040eb008048780031
:1026a400b0448000e70040000040eb008048780020
:1026b400b1448000c04580000002eb008001eb00c3
:1026c4008200200026090700204580000000e80061
:1026d40020458800ed003700c04580003040900060
:1026e400624060000004e000e8003200c045800061
:1026f40030409000614060000004e00004003200bb
:10270400204580000000e80020458800df003700f5
:10271400b5010700dd00370030c0b3009de8b70005
:10272400204580000000e80020458800d7003700dd
:102734002145800000f02000008060000010b000ff
:1027440020458800bac8bf000044b2000004e0007d
:102754001a003200b1c8bf00404798004e409000b4
:102764000080fb006a00b90080007800c09320005c
:1027740000804000100278004e4090000080fb0072
:102784006a00b900e6004000c093200000804000c9
:102794001001be00afc8bf00ce409000040001008d
:1027a4000000e000b9003a0090c3b300b0e8b700fd
:1027b4000050200020458800b4003700b145800057
:1027c400410798001d0037004e009000f040900033
:1027d400414798004e4090000080fb006a00b90019
:1027e40080007800c0932000008040001002780030
:1027f4004e4090000080fb006a00b900e6004000f3
:10280400c0932000008040001001be00afc8bf008c
:10281400ce409000040001000000e00004003a00f3
:1028240090c3b300b0e8b7000050200020458800f2
:102834004e00900090007800410798004e009000f0
:102844000000e000e0ff3a009000370021458000de
:10285400000f200080806000010f98000e08900097
:102864000000e000890032008e089000f08f5000d4
:102874000100320085003700204580006f006000b1
:10288400700798007e009000e20f50007f00320035
:10289400fe009000e28f500007003e007e00900092
:1028a4000000e00079003200fe009000e18f50004b
:1028b4000b003200750037007e009000e40f5000da
:1028c40072003200fe009000e48f50000e003900c8
:1028d4007e009000e50f5000160032006b003700b8
:1028e4009444a80050012000004588000004200002
:1028f4000024880082c4a800204580000000e8006d
:1029040020458800610037009444a9009404a8007d
:10291400b000200000458800000420000024880046
:1029240082c4a800204580000000e80020458800fb
:10293400560037000040200020458800530037002f
:1029440020458000010f2000010060000000e0002d
:10295400010032004d00370080002000a0248800d0
:102964000000eb0060248800f00f20005024880051
:1029740011248000c008200000806000102488001a
:10298400d0072000002488000000eb008024880089
:10299400f00f2000702488008c04a800000420009c
:1029a4000024880082c4a800b0c8bf000080fb00d7
:1029b4006007980040032000ee009000808f5000d4
:1029c4001800320040032000ee009000808f500079
:1029d40008003c006e009000e70f50001400320025
:1029e40030032000ee009000808f5000160032006b
:1029f4001800370050032000ee009000808f500034
:102a04000500320090032000ee009000808f5000fb
:102a14000a0032000f00370050c6b3004047980048
:102a24000e003700c0c6b300404798000b003700c3
:102a3400d0c6b3004047980008003700e0c6b30092
:102a44004047980005003700f0c6b300404798009f
:102a54000200370000c7b300404798004e40900082
:102a64008080fb00afc8bf001400200005002000d8
:102a7400228b2000ce1807002145800000ff200093
:102a84000080600070004000204588004f047800fa
:102a94000080fa00000006000400fa0020479800b5
:102aa40031479800f18a2000914078002e40900030
:102ab40080cf50000e003a003e409000d60107003f
:102ac400000f78001e00e000090032001e017800ab
:102ad400a240900000c8b30000c0700020419800dc
:102ae4009e007800314090000014a000b04098008f
:102af4000080fa00000006000c00fa00404798002d
:102b0400514798003207980043079800f18a200043
:102b1400914078004e40900080cf50000900320070
:102b2400be00900060c0b300804878004e01900061
:102b34006000b8000089be00100020005007980013
:102b4400380037005e409000b3010700100798007a
:102b54001e0090000000e0002d0032001e009000d6
:102b6400304090000080fb000000d1006140600014
:102b7400004f78001e0090003040900061406000db
:102b84000004e00009003200be0090000040eb00a9
:102b9400804878001e009000900890000008900083
:102ba4004e0190000089be00160037001e00900000
:102bb400204090000042b2000004e0000400320013
:102bc400be00900010c1b300804878000d003700ab
:102bd4001e009000204090000044b2000004e00079
:102be400050032001e009000c05890003e00900086
:102bf4000148780003003700be00900090c1b30084
:102c0400804878001e80fb005007980005003700bc
:102c1400be00900040c1b30080487800100020003e
:102c2400500798005e0090000080fa000000060043
:102c34000600fa00000f78002147980032479800f8
:102c44002e409000e14f400012003a003e409000b8
:102c54000004e0000f003a00800620009e0f1000e0
:102c640005003a003df90700f208a9000000eb0056
:102c74002007980009003700b00620009e0f1000be
:102c840004003a00f208a8000000eb0020079800b6
:102c94000200370030002000200798002e0090002a
:102ca4000080fa00000006000c00fa00204798009b
:102cb4003147980022079800340798004507980088
:102cc400f18a2000914078002e40900080cf50007f
:102cd4000300320060002000500798003f003700d6
:102ce4002145800000f0200080806000004020002a
:102cf400808f50000300320010002000500798001d
:102d0400360037003e40900043010700000f780072
:102d14001e00e0002f0032001e007800d008900052
:102d240000302000008060000000e00003003a0052
:102d34008001200050079800280037001e0078000a
:102d4400205890000004e00003003d0050012000e2
:102d540050079800210037001e00780020409000a2
:102d64000042b2000004e000030032001001200021
:102d740050079800190037001e007800204090008a
:102d84000044b2000004e0000300320020012000ef
:102d940050079800110037001e0078003040900062
:102da400624060000004e00003003a0000012000db
:102db40050079800090037003e019000ae009000d3
:102dc4001e007800fa0707000000eb005007980087
:102dd4000200370040012000500798005e00900078
:102de4000080fa00000006000000fa00124580008e
:102df400a2409000f0cbb30000c0600020419800d6
:102e040012458000a2409000f0cdb30000c06000e5
:102e1400204198009dc8bf000040e9009de8b7002c
:102e24009dc8bf000004e00005003200204580007a
:102e340001ff2f0001006000204588000d003700cd
:102e44009ec8bf000040e9009ee8b7009ec8bf00ce
:102e54000004e00003003200001120002045880037
:102e64000400370070c0b300b0e8b7000050200081
:102e7400204588000080fa00000006001400fa00d3
:102e8400404f9800514f9800624f9800030f9800ec
:102e9400504c8000000f78000000eb0010079800f1
:102ea4004f0037001e0090004300dd00e6004000a4
:102eb4000095200000804000100078000000d10040
:102ec40061406000e14f500042003a001e00900053
:102ed400c300dd0000952000008040009040780091
:102ee4004e48900080cf50003a003a001e009000f7
:102ef400c300dd0000952000008040009040900059
:102f04005e48900080cf500032003a001e009000ce
:102f14004300dd008080e800009520000080400030
:102f2400904078006e48900080cf500029003a000d
:102f34009e007800014890000081fb001148900039
:102f44000080fb004800dd000200700020079800ac
:102f54009e007800214890000081fb0031489000d9
:102f64000080fb004800dd0002007000300798007c
:102f74004e489000004f98005e489000104f980013
:102f84006e489000204f98006401470084002000a0
:102f9400050020009107200000c0eb008417070003
:102fa4000000e0000b003a001e0090004300dd002a
:102fb400e400400000952000008040009040900014
:102fc4000e0890000148780010002000100f9800af
:102fd400080037001e0090000000e8001007980069
:102fe4001e009000e20f5000aeff34000000eb0022
:102ff400100f98001e0890000080fa0000000600e0
:103004000600fa00504c8000000f78000000eb002e
:1030140010079800bac8a900770037001e00900076
:103024004300dd00e60040000095200000804000e1
:10303400100078000000d100614060000004e0004e
:103044001e0032001e009000c300dd000095200029
:1030540000804000904078001e00780040409000be
:1030640080cf500042003a001e009000c300dd00f3
:103074000095200000804000904090001e007800e1
:103084005040900080cf500039003a001e0090005c
:103094004300dd008080e8000095200000804000af
:1030a400904078001e0078006040900080cf50006f
:1030b4002f003a00bac8a8002d0037001e00900067
:1030c400c300dd00009520000080400090017800de
:1030d4009e007800014890000081fb001148900098
:1030e4000080fb004800dd0002007000808f51006a
:1030f4000f003a001e0090004300dd008080e800cd
:103104000095200000804000900178009e00780027
:10311400214890000081fb00314890000080fb00b2
:103124004800dd0002007000808f51000f00320063
:103134001e009000c300dd000095200000804000c8
:1031440010007800e10f400009003a001e009000d2
:103154004300dd008080e8000095200000804000ee
:1031640010007800e10f400001003a00bac8a8003e
:10317400bac8bf000044b2000004e0001b003200e3
:103184001e0090004300dd00e40040000095200094
:103194000080400010409000b1e8b7001e0090008d
:1031a4004300dd00e6004000009520000080400060
:1031b400100078004200de00614060000004e0007e
:1031c400070032001e0090004300dd00e4004000d0
:1031d400009520000080400010407800ace8b70063
:1031e4001000200020079800080037001e009000ff
:1031f4000000e800100798001e009000e20f500045
:1032040086ff36000000eb00200798002e00900097
:103214000080fa00000006000800fa004047980009
:103224004e4090000004e00003003a00c0458000d6
:103234003007980020003700b1458000010f780066
:10324400190037001e007800200090000000e00004
:10325400130032001e00780020009000a0009000af
:10326400110798000b0037001e009000a058900032
:103274004e40900080cf500003003a001e009000a2
:10328400300798000c0037001e0090009000780072
:10329400110798001e0090000000e000f2ff3a00c1
:1032a4001e007800100f78001e00e000e5ff3a00d1
:1032b4000000eb00300798003e0090000080fa0008
:1032c400000006003200fa000000eb00600f9800d6
:1032d40020458000a6c8bf00704060000004e000e4
:1032e400ee043a00a6c8bf00614060000004e0009c
:1032f40049023a000040eb00ea0407000000e00045
:103304004402320010458000005890008080fb0089
:10331400000f200080806000011f98000002200040
:103324008e189000808f5000b800320000032000f7
:103334008e189000808f50006f0132000e1890009c
:10334400f00f5000010032002602370010458000c3
:10335400005890000080fb006f0060007017980018
:10336400fe109000e18f50001b0032007e10900090
:10337400e10f500004003c00fe1090000100e0004a
:10338400080032009e0037007e109000e20f5000cb
:1033940023003200fe109000ef8f50005d003200d9
:1033a4009700370012458000b240900070cfb30000
:1033b40000c0600030419800d0c0b300810907000c
:1033c4001045800020589000d1c0b3005309070075
:1033d400a608a800b10437001245800010458000fb
:1033e4009008900000089000500198006101980036
:1033f40011458000314090000034a000b040980096
:1034040090c0b3006f090700104580002058900059
:1034140091c0b30041090700a608a8009f04370023
:10342400114580000040eb00805898001145800051
:10343400314090000014a000b04098000046800085
:10344400e30f50002f003c00004680000000e8001d
:1034540000468800e0458000e20f500004003c0074
:10346400e04580000000e800e045880002003700e5
:103474000000eb00e0458800e04580006c00b900e6
:1034840080007800208c200000804000500f9800bd
:10349400de08900020072000800878001045800096
:1034a40090089000000890005e09900010019800b8
:1034b4002101980010458000b00890005e0890003b
:1034c40031009800de0890000040eb00904898001e
:1034d40010458000a05890005e08900001489800b4
:1034e40010458000b05890005e0890002148980074
:1034f40010458000905890005e0890003148980074
:10350400ba0137001145800080c0b300b05898005c
:10351400b6013700114580000040eb008058980048
:1035240011458000314090000014a000b040980084
:1035340000468000e30f50002d003c000046800050
:103544000000e80000468800e0458000e20f5000db
:1035540004003c00e04580000000e800e0458800ed
:10356400020037000000eb00e0458800e0458000e1
:103574006c00b90080007800208c2000008040009e
:10358400400f9800ce089000f0ff270080087800d4
:103594004e0990006000b8001001980021019800c5
:1035a400ce0890000000eb00b000980010458000a9
:1035b400c05890004e0890001148980010458000b3
:1035c400a05890004e0890000148980010458000d3
:1035d400b05890004e089000214898001045800093
:1035e400905890004e089000314898007f013700b1
:1035f4001145800080c0b300b05898007b013700ab
:1036040010002000600f98007801370010458000fa
:10361400005890000080fb006f0060006017980065
:103624006e109000e20f500026003200ee10900061
:10363400e28f500007003c006e1090000000e00094
:103644000b003200ee109000e18f500015003200a4
:10365400a60037006e109000e30f50002b003200dc
:10366400ee109000ef8f5000650032009f0037008d
:1036740012458000b240900070cfb30000c06000db
:1036840030419800d0c0b300ce0807001045800038
:1036940020589000d1c0b300a0080700a608a800d5
:1036a400fe03370090c0b300c60807001045800031
:1036b4002058900091c0b30098080700a608a800fd
:1036c400f6033700124580001045800090089000f2
:1036d4000008900050019800610198001145800095
:1036e400314090000034a000b040980010c0b300f6
:1036f400b4080700104580002058900011c0b300a2
:1037040086080700a608a800e403370011458000d6
:103714000040eb0080589800114580003140900033
:103724000014a000b040980000468000e30f500051
:103734002f003c00004680000000e800004688009e
:10374400e0458000e20f500004003c00e0458000aa
:103754000000e800e0458800020037000000eb00ac
:10376400e0458800e04580006c00b90080007800e6
:10377400208c200000804000300f9800be0890008c
:1037840020072000800878001045800090089000f1
:10379400000890003e099000100198002101980053
:1037a40010458000b00890003e0890003100980059
:1037b400be0890000040eb0090489800104580003f
:1037c400a05890003e0890000148980010458000e1
:1037d400b05890003e0890002148980010458000a1
:1037e400905890003e08900031489800ff00370040
:1037f4001145800080c0b300b0589800fb0037002a
:10380400114580000040eb0080589800114580006d
:10381400314090000014a000b040980000468000a1
:10382400e30f50002d003c00004680000000e8003b
:1038340000468800e0458000e20f500004003c0090
:10384400e04580000000e800e04588000200370001
:103854000000eb00e0458800e04580006c00b90002
:1038640080007800208c200000804000200f980009
:10387400ae089000f0ff2700800878002e09900021
:103884006000b8001001980021019800ae08900073
:103894000000eb00b000980010458000c058900074
:1038a4002e0890001148980010458000a058900000
:1038b4002e0890000148980010458000b0589000f0
:1038c4002e089000214898001045800090589000e0
:1038d4002e08900031489800c4003700114580003c
:1038e40080c0b300b0589800c0003700100020001a
:1038f400600f9800bd00370010458000005890000c
:103904000080fb006f006000501798005e1090006c
:10391400e20f500026003200de109000e28f5000cb
:1039240007003c005e1090000000e0000b00320035
:10393400de109000e18f500015003200a600370021
:103944005e109000e30f50002b003200de10900058
:10395400ef8f5000650032009f0037001245800051
:10396400b240900070cfb30000c0600030419800b6
:10397400d0c0b30013080700104580002058900001
:10398400d1c0b300e5070700a608a8004303370029
:1039940010c0b3000b0807001045800020589000a9
:1039a40011c0b300dd070700a608a8003b033700d9
:1039b4001245800010458000900890000008900097
:1039c4005001980061019800114580003140900039
:1039d4000034a000b040980090c0b300f90707007d
:1039e400104580002058900091c0b300cb07070019
:1039f400a608a80029033700114580000040eb0009
:103a04008058980011458000314090000014a000b7
:103a1400b040980000468000e30f50002f003c00a7
:103a2400004680000000e80000468800e045800071
:103a3400e20f500004003c00e04580000000e80074
:103a4400e0458800020037000000eb00e0458800f4
:103a5400e04580006c00b90080007800208c2000d4
:103a640000804000100f98009e089000200720005e
:103a740080087800104580009008900000089000ad
:103a84001e09900010019800210198001045800043
:103a9400b00890001e089000310098009e08900025
:103aa4000040eb009048980010458000a05890001a
:103ab4001e0890000148980010458000b0589000fe
:103ac4001e089000214898001045800090589000ee
:103ad4001e089000314898004400370011458000ca
:103ae40080c0b300b05898004000370011458000f2
:103af4000040eb0080589800114580003140900050
:103b04000014a000b040980000468000e30f50006d
:103b14002d003c00004680000000e80000468800bc
:103b2400e0458000e20f500004003c00e0458000c6
:103b34000000e800e0458800020037000000eb00c8
:103b4400e0458800e04580006c00b9008000780002
:103b5400208c200000804000000f98008e08900008
:103b6400f0ff2700800878000e0990006000b8007c
:103b740010019800210198008e0890000000eb00cd
:103b8400b000980010458000c05890000e089000c6
:103b94001148980010458000a05890000e0890002d
:103ba4000148980010458000b05890000e0890001d
:103bb4002148980010458000905890000e0890000d
:103bc40031489800090037001145800080c0b300d7
:103bd400b05898000500370010002000600f9800ce
:103be4000200370010002000600f98006e0890005b
:103bf4000000e00007003200114580000040eb00a7
:103c04008058980011458000314090000014a000b5
:103c1400b0409800a608a800a6c8bf006240600093
:103c24000004e00052013a0030c0b3009d020700d6
:103c34000000e0004d013200104580000058900063
:103c44008080fb00000f20008080600041179800f6
:103c540000042000ce109000808f50000500320038
:103c640000052000ce109000808f50009a00320092
:103c74003201370010458000005890000080fb009e
:103c84006f006000301798003e109000e10f500064
:103c940016003200be109000ef8f5000500032002a
:103ca4003e1090000000e000010032008700370061
:103cb40010458000300090000000e00021013a002f
:103cc400114580001045800020009000b00098004d
:103cd40090c0b3003b0707001045800020589000b7
:103ce40091c0b3000d0707006c0237001145800036
:103cf4000040eb008058980011458000314090004e
:103d04000014a000b040980000468000e30f50006b
:103d14002f003c00004680000000e80000468800b8
:103d2400e0458000e20f500004003c00e0458000c4
:103d34000000e800e0458800020037000000eb00c6
:103d4400e0458800e04580006c00b9008000780000
:103d5400208c20000080400070079800fe00900036
:103d6400200720008008780010458000900890000b
:103d7400000890007e019000100198002101980035
:103d840010458000b00890007e009000310098003b
:103d9400fe0090000040eb00904898001045800021
:103da400a05890007e0090000148980010458000c3
:103db400b05890007e009000214898001045800083
:103dc400905890007e00900031489800dd00370044
:103dd4001145800080c0b300b0589800d900370066
:103de400114580000040eb00805898001145800088
:103df400314090000014a000b040980000468000bc
:103e0400e30f50002d003c00004680000000e80055
:103e140000468800e0458000e20f500004003c00aa
:103e2400e04580000000e800e0458800020037001b
:103e34000000eb00e0458800e04580006c00b9001c
:103e440080007800208c20000080400060079800eb
:103e5400ee009000f0ff2700800878006e019000cb
:103e64006000b8001001980021019800ee00900055
:103e74000000eb00b000980010458000c05890008e
:103e84006e0090001148980010458000a0589000e2
:103e94006e0090000148980010458000b0589000d2
:103ea4006e009000214898001045800090589000c2
:103eb4006e00900031489800a20037001145800040
:103ec40080c0b300b05898009e0037001000200056
:103ed400600f98009b003700104580000058900048
:103ee4000080fb006f00600020179800ae10900067
:103ef400e18f5000160032002e109000ef0f50009a
:103f040050003200ae1090000100e00001003200c9
:103f14008700370010458000300090000000e0006a
:103f240088003a0011458000104580002000900070
:103f3400b000980010c0b300a2060700104580002e
:103f44002058900011c0b30074060700d301370055
:103f5400114580000040eb00805898001145800016
:103f6400314090000014a000b0409800004680004a
:103f7400e30f50002f003c00004680000000e800e2
:103f840000468800e0458000e20f500004003c0039
:103f9400e04580000000e800e045880002003700aa
:103fa4000000eb00e0458800e04580006c00b900ab
:103fb40080007800208c200000804000500798008a
:103fc400de00900020072000800878001045800063
:103fd40090089000000890005e0190001001980085
:103fe4002101980010458000b00890005e00900008
:103ff40031009800de0090000040eb0090489800eb
:1040040010458000a05890005e0090000148980080
:1040140010458000b05890005e0090002148980040
:1040240010458000905890005e0090003148980040
:10403400440037001145800080c0b300b058980098
:1040440040003700114580000040eb008058980084
:1040540011458000314090000014a000b040980049
:1040640000468000e30f50002d003c000046800015
:104074000000e80000468800e0458000e20f5000a0
:1040840004003c00e04580000000e800e0458800b2
:10409400020037000000eb00e0458800e0458000a6
:1040a4006c00b90080007800208c20000080400063
:1040b40040079800ce009000f0ff270080087800a9
:1040c4004e0190006000b800100198002101980092
:1040d400ce0090000000eb00b00098001045800076
:1040e400c05890004e009000114898001045800080
:1040f400a05890004e0090000148980010458000a0
:10410400b05890004e00900021489800104580005f
:10411400905890004e0090003148980009003700f4
:104124001145800080c0b300b058980005003700e6
:1041340010002000600f98000200370010002000db
:10414400600f98006e0890000000e0000700320045
:1041540011458000314090000014a000b040980048
:10416400114580000040eb0080589800a628a80064
:10417400a6c8bf00684060000004e00047013a00a0
:1041840020c0b300470107000000e0003c013200fa
:1041940010458000005890008080fb00000f200034
:1041a4008080600011179800000820009e10900085
:1041b400808f500005003200000920009e109000fe
:1041c400808f50009200320021013700104580009a
:1041d400005890000080fb006f00600000179800fa
:1041e4000e109000e10f50000e0032008e1090006f
:1041f400ef8f5000480032000e1090000000e000e5
:10420400010032007f00370090c0b300ed050700c5
:10421400104580002058900091c0b300bf050700ee
:104224001e013700114580000040eb0080589800c3
:1042340011458000314090000014a000b040980067
:1042440000468000e30f50002f003c000046800031
:104254000000e80000468800e0458000e20f5000be
:1042640004003c00e04580000000e800e0458800d0
:10427400020037000000eb00e0458800e0458000c4
:104284006c00b90080007800208c20000080400081
:1042940030079800be0090002007200080087800b6
:1042a4001045800090089000000890003e019000a6
:1042b400100198002101980010458000b00890007a
:1042c4003e00900031009800be0090000040eb00da
:1042d4009048980010458000a05890003e0090003f
:1042e4000148980010458000b05890003e009000ae
:1042f4002148980010458000905890003e0090009e
:1043040031489800d40037001145800080c0b300c4
:10431400b0589800d0003700114580000040eb00f1
:104324008058980011458000314090000014a0008e
:10433400b040980000468000e30f50002d003c0080
:10434400004680000000e80000468800e045800048
:10435400e20f500004003c00e04580000000e8004b
:10436400e0458800020037000000eb00e0458800cb
:10437400e04580006c00b90080007800208c2000ab
:104384000080400020079800ae009000f0ff270056
:10439400800878002e0190006000b8001001980099
:1043a40021019800ae0090000000eb00b0009800de
:1043b40010458000c05890002e00900011489800cd
:1043c40010458000a05890002e00900001489800ed
:1043d40010458000b05890002e00900021489800ad
:1043e40010458000905890002e00900031489800ad
:1043f400990037001145800080c0b300b058980080
:104404009500370010002000600f980092003700dc
:1044140010458000005890000080fb006f00600091
:10442400700f9800fe089000e18f50000e003200db
:104434007e089000ef0f500048003200fe08900004
:104444000100e000010032007e00370010c0b3001c
:104454005c050700104580002058900011c0b3008f
:104464002e0507008d003700114580000040eb0049
:104474008058980011458000314090000014a0003d
:10448400b040980000468000e30f50002f003c002d
:10449400004680000000e80000468800e0458000f7
:1044a400e20f500004003c00e04580000000e800fa
:1044b400e0458800020037000000eb00e04588007a
:1044c400e04580006c00b90080007800208c20005a
:1044d40000804000100798009e00900020072000f4
:1044e4008008780010458000900890000008900033
:1044f4001e019000100198002101980010458000d1
:10450400b00890001e009000310098009e009000ba
:104514000040eb009048980010458000a05890009f
:104524001e0090000148980010458000b05890008b
:104534001e0090002148980010458000905890007b
:104544001e00900031489800430037001145800058
:1045540080c0b300b05898003f0037001145800078
:104564000040eb00805898001145800031409000d5
:104574000014a000b040980000468000e30f5000f3
:104584002c003c00004680000000e8000046880043
:10459400e0458000e20f500004003c00e04580004c
:1045a4000000e800e0458800020037000000eb004e
:1045b400e0458800e04580006c00b9008000780088
:1045c400208c2000008f40009e007800f0ff270020
:1045d400800878001e0178006000b800100198007f
:1045e400210198009e0078000000eb00b0009800c4
:1045f40010458000c05890001e00780011489800b3
:1046040010458000a05890001e00780001489800d2
:1046140010458000b05890001e0078002148980092
:1046240010458000905890001e0078003148980092
:10463400090037001145800080c0b300b0589800cd
:104644000500370010002000600f980002003700ba
:1046540010002000600f98006e0890000000e00039
:1046640007003200114580000040eb00805898009c
:1046740011458000314090000014a000b040980023
:10468400a9c8bf000004e000030032000040eb00b2
:10469400a8e8b700b6fe3700a668a8000080fa00b4
:1046a400000006000a00fa0040479800c045800058
:1046b400500890004800de00634060008080fb00ea
:1046c4004e4090000080fb00808f50000a003a00aa
:1046d400c045800030409000624060000004e0006b
:1046e40005003a00c04580001045880010002000f5
:1046f40040079800760037000040eb00a9e8b700b7
:104704000000eb0010079800b1458000010f78000d
:104714001e00e0006a0032001e00780020009000b5
:104724000000e000660032001e00780020009000c7
:10473400a000900011079800610037001e0090004f
:104744000000e0004f0032001e009000500890006e
:104754004800de00634060008080fb004e40900013
:104764000080fb00808f500043003a004e409000d0
:104774000080fb00300798003e009000e20f5000dc
:1047840024003200be009000e38f50000e0032007f
:104794003e0090000000e0000100320036003700c7
:1047a4001e00900030409000624060000004e00071
:1047b40031003a001e0090001045880011002000ce
:1047c40041079800420037001e00900030409000de
:1047d400624060000004e000090032001e00900006
:1047e400300090000000e00023003a001e0090001a
:1047f400a00090001e009000310098001e003700b9
:104804001e0090001045880010002000400798000a
:104814002f0037001e00900030409000624060007e
:104824000004e00014003a001e00900030409000a4
:10483400704060000004e0000f003a00a9c8bf0007
:104844000040e800a9e8b700918a20009140780070
:10485400a8c8bf0080cf500007003600a9c8bf0019
:10486400a8e8b7001e009000104588001100200041
:1048740041079800160037001e0090009000780051
:10488400110798001e0090000000e0000c003a00a0
:104894001e007800100f78001e00e00008003200af
:1048a4001e007800200090000000e00004003200a8
:1048b4001e00780020009000a000900011079800ce
:1048c4001e00e0009dff3a000000eb004007980046
:1048d4004e0090000080fa00000006000600fa0076
:1048e40031003700b045800090007800210798001f
:1048f40023003700b045800010009000900078003d
:104904001107980010003700b04580001000900097
:1049140020009000100f7800b04580001000900037
:1049240020009000b7ef0700b04580009000900091
:104934000000eb00a0009800b0458000100090003b
:104944009e00780021009800b0458000100090007f
:10495400200090000000e000ebff3a00b04580002a
:1049640010009000a7ef0700b14580000000eb00a5
:1049740090009800b04580009e00900011009800bf
:10498400b0458000100090000000e000d9ff3a001c
:10499400b04580009bef07000000eb00b0458800a5
:1049a4002e009000b0458800b04580000000e00073
:1049b400ccff3a00c0458000104588000080fa0012
:1049c400000006000200fa000f003700a045800036
:1049d40010009000000f7800a045800010007800bf
:1049e40088ef0700a14580000000eb0080087800f4
:1049f400a045800083ef07000000eb00a04588007d
:104a04001e007800a0458800a04580000000e0005a
:104a1400eeff3a00504c80000000e0000400320039
:104a2400504c800077ef07000000eb00504c8800ea
:104a3400b04480000000e00004003200b044800074
:104a440070ef07000000eb00b0448800a3ff0700ec
:104a54000080fa00000006000a00fa00000f780047
:104a6400110798002207980033079800440798001c
:104a74001e017800a2409000f0cdb30000c0600099
:104a8400204198001e017800a2409000f0cbb300b2
:104a940000c06000204198009e00780021409000f2
:104aa4000074a100a04098001e017800b24090005c
:104ab400e0cfb30000c06000304198001e017800d0
:104ac400a240900000ceb30000c0600020419800d6
:104ad4001e017800b2409000f0ceb30000c0600028
:104ae400304198001e007800be0090003108980004
:104af4001e0178006000b8000009980011099800b0
:104b04004e009000010020001e0178005001980022
:104b1400610198009e0078000000eb00f008980006
:104b24001e0078009e009000210898001e00780066
:104b3400ae009000710098009e00780000c2b3009f
:104b4400805898001e017800b2409000d0cfb30086
:104b540000c06000304198000080fa0000000600a8
:104b64000a00fa00000f7800110798002207980045
:104b740033079800440798001e017800a240900073
:104b8400f0cdb30000c06000204198001e01780001
:104b9400a2409000f0cbb30000c060002041980018
:104ba4009e007800214090000074a100a04098006d
:104bb4001e017800b2409000e0cfb30000c0600056
:104bc400304198001e017800a240900000ceb3004e
:104bd40000c06000204198001e017800b24090009f
:104be400f0ceb30000c06000304198001e00780091
:104bf400be009000310898001e0178006000b800e3
:104c040000099800110998004e009000010020004e
:104c14001e01780050019800610198009e00780000
:104c24000000eb00f00898001e0078009e00900041
:104c3400210898001e007800ae00900071009800d2
:104c44004e0090000000e00004003a009e0078004e
:104c540000c1b30080589800030037009e0078001c
:104c640000c3b300805898001e017800b240900041
:104c7400d0cfb30000c06000304198000080fa003b
:104c8400000006000600fa00000f780011079800e3
:104c9400220798009e007800214090000074a10033
:104ca400a04098001e017800b2409000e0cfb3000d
:104cb40000c06000304198001e017800a2409000be
:104cc40000ceb30000c06000204198001e017800af
:104cd400b2409000f0ceb30000c0600030419800b4
:104ce4001e0078009e009000310898001e01780094
:104cf4006000b80000099800110998002e00900087
:104d0400010020001e017800500198006101980004
:104d14009e0078000000eb00f00898001e00780068
:104d2400d008900000302000808060000030200017
:104d3400808f500004003a009e00780000c4b30045
:104d440080589800130037001e007800d0089000a7
:104d5400003020008080600000102000808f500010
:104d640009003a009e00780000c6b30080589800fd
:104d74001e00780030089000800078000040eb00ae
:104d840090409800030037009e00780000c8b300ec
:104d9400805898001e017800b2409000d0cfb30034
:104da40000c06000304198000080fa000000060056
:104db4000600fa00000f78001107980022079800f7
:104dc4009e007800214090000074a100a04098004b
:104dd4001e017800b2409000e0cfb30000c0600034
:104de400304198001e017800a240900000ceb3002c
:104df40000c06000204198001e017800b24090007d
:104e0400f0ceb30000c06000304198001e0078006e
:104e14009e009000310898001e0178006000b800e0
:104e240000099800110998002e009000010020004c
:104e34001e01780050019800610198009e007800de
:104e44000000eb00f00898001e007800d0089000e5
:104e5400003020008080600000302000808f5000ef
:104e640004003a009e00780000c5b3008058980002
:104e7400130037001e007800d00890000030200096
:104e84008080600000102000808f500009003a00ec
:104e94009e00780000c7b300805898001e00780078
:104ea40030089000800078000040eb0090409800ab
:104eb400030037009e00780000c9b30080589800b2
:104ec4001e017800b2409000d0cfb30000c0600053
:104ed400304198000080fa00000006000c00fa003f
:104ee400204798002107980032079800430798004c
:104ef4002e0090005007980020072000de0090004c
:104f0400808f500005003200f0ff2700de00900083
:104f1400808f500001003200140037003e009000e2
:104f240010489000e14f4000260032003e009000ff
:104f3400104890000080fb006a00b9008080e800ff
:104f4400c093200000804000900178004e00900043
:104f5400010020000002be003e019000ae0090005f
:104f64002e4090000300010016003700b045800079
:104f7400000f7800110037001e0078007040900088
:104f84000080fb006a00b9008080e800c093200024
:104f940000804000900178004e0090000100200045
:104fa4000002be003e019000ae0090002e40900032
:104fb400030001001e007800100f78001e00e000be
:104fc400edff3a000080fa00000006000a00fa0033
:104fd400204798002107980032079800430798005b
:104fe400b0458000000f7800110037001e007800e3
:104ff400704090000080fb006a00b900e4004000ab
:10500400c093200000804000900178004e00900082
:10501400010020000002be003e019000ae0090009e
:105024002e409000030001001e007800100f78004d
:105034001e00e000edff3a000080fa0000000600c8
:105044000a00fa00204798002107980032079800c8
:10505400430798000000eb00000f78000e003700b3
:105064001e0078006a00b900e4004000c0932000ec
:1050740000804000900178004e0090000100200064
:105084000002be003e019000ae0090002e40900051
:10509400030001001e0fe800100020009e0f100006
:1050a400efff36000080fa00000006002400fa003a
:1050b4000040eb00504f98000000eb00300f9800c8
:1050c4000000eb0050079800404c8000000f78006f
:1050d4000040eb00404f98000040eb00704f9800f8
:1050e400b145800011079800ba28a900ba48a80061
:1050f4001e00780090407800315f98001e0fe80091
:105104001e00780090407800515f98001e0fe80060
:105114001e007800104078000080fb00000f98000b
:105124001e0fe8001e007800104078000080fb008d
:105134004800dd00800078000e0890000100400067
:10514400000f98001e0fe8001e00780090407800c1
:10515400115f98001e0fe8001e0078009040780050
:10516400614f98001e0fe8001e0fe8001e0fe800b4
:105174001e00780090407800015f98000002200033
:105184000e0040008e58900011409800010220004b
:105194008e8040000040eb0080487800020220002e
:1051a4000e0141002400200005002000910620008b
:1051b40000c0eb00fe0e07000000e00004003a000f
:1051c40080c2b300b0e8b70010002000300f980090
:1051d4003e5890008080fb005e009000010040007b
:1051e40050079800414c80005e009000008f400002
:1051f4004a0137001e00780090407800315f980023
:105204001e0fe8001e00780090407800515f98005f
:105214001e0fe8005e589000e94f500012003a005b
:10522400ba28a8001e00780010407800ade8b70046
:10523400adc8bf000080fb000000d1006100600029
:105244000004a2000004e00006003a00bac8bf004f
:10525400684060000004e00002003200ba48a9007f
:1052640001003700ba68a9005e589000e44f50006e
:10527400090032003e5890008080fb005e009000e0
:105284000100400050079800414c80005e009000ef
:10529400008f4000210137001e0078009040780004
:1052a400415f98001e0fe8001e00780090407800cf
:1052b400615f98001e0fe8001e007800904078009f
:1052c400215f98001e0fe8001e00780090407800cf
:1052d400415798001e0fe8001e00780090407800a7
:1052e400315798001e0fe8001e00780090407800a7
:1052f400215798001e0fe800bac8bf000044b2004e
:105304000004e00003003200b1c8bf00705f9800e1
:10531400110037007f004700800178002e51900073
:10532400be5090004e509000d4f607000000e000fc
:1053340009003a003e5890008080fb005e00900017
:105344000100400050079800414c80005e0090002e
:10535400008f4000f10037001e00900030079800d5
:10536400030037003e009000900078003107980059
:105374003e0090000000e000050032003e00900076
:10538400e04090004e58900080cf5000f5ff3a0066
:105394003e0090000000e00019003a008000200068
:1053a40086ec0700300798003e0090000000e00003
:1053b40002003a0010002000300f98003e009000d8
:1053c400ce58900061409800fe5890003e00900036
:1053d40071409800be0090000000eb00900098001f
:1053e400be0090000000eb00a00098003e0090007a
:1053f4009e009000010878003e009000100798007d
:105404003e0890000000e00008003a006000200020
:105414006aec0700200798002e0090000000e000ce
:1054240002003a0010002000300f98003e0890005f
:105434000000e000b3003a003e00900090009000ad
:105444002e009000010878002e009000ee58900085
:1054540021409800ae0090000000eb00a0009800ee
:105464003e009000ae009000110098006e5890002d
:105474000004e00003003a003e009000ae009000fb
:10548400210098003e5890008080fb005e00900050
:105494000100400050079800414c80005e009000dd
:1054a400008f40000040eb00504f98008a00370006
:1054b4001e00780090407800315f98001e0fe800cd
:1054c4001e00780090407800515f98001e0fe8009d
:1054d4005e589000e54f5000090032003e5890009d
:1054e4008080fb005e00900001004000500798009f
:1054f400414c80005e009000008f40007600370031
:10550400200220002dec0700400798004e00900078
:105514000000e00002003a0010002000300f980064
:105524001e007800904078004e00900021589800aa
:105534001e0fe8001e007800904078004e00900096
:10554400315898001e0fe8001e00780010407800c3
:105554008080fb004e009000410098001e0fe80080
:105564004e009000c00090001e00780010407800ab
:105574000080fb004800dd00808040004e00900069
:10558400410098001e0fe8001e00780010407800cb
:105594008080fb004e009000210098001e0fe80060
:1055a400ce0090000000eb0090009800ce00900028
:1055b400314090000024a000b0409800ce0090003c
:1055c400314090000014a000b04098004e019000bb
:1055d4006000b8000009980011099800ce009000fe
:1055e4000040eb0080589800fe5890004e00900058
:1055f400115898004e009000d00890000030200010
:105604008080600000102000808f50001c003a0051
:105614004e009000200090000000e00003003a00db
:10562400ce00900010002000a00098004e009000d2
:1056340020009000f00f500003003600ce009000d0
:1056440000012000a00098004e009000200090006f
:105654000000e90080007800100020000100dd0057
:10566400800078004e009000210098004e019000c8
:10567400b2409000b0cfb30000c060003041980049
:105684004e009000a00090004e0090003100980061
:105694002e009000a00090004e00900001087800b9
:1056a4002e009000ce009000210098005e489000eb
:1056b4000040e800504f98003e5890008080fb0066
:1056c4005e0090000100400050079800414c8000ab
:1056d4005e009000008f40003e0890000000e00053
:1056e40008003a00de0090000e089000808f500001
:1056f40004003100de4890002e58900080cf500006
:105704006bff3900de4890002e58900080cf500087
:105714000200320010002000300f98003e08900074
:105724000000e00004003a00de0090000e08900043
:10573400808f5000affe39001e0090000000e00092
:1057440002003a0010002000300f98003e0890003c
:105754000000e000320032002b0037001e009000f1
:10576400300798001e009000900078001107980000
:105774001d0037003e009000900090002107980023
:105784003e00900010009000900078003e009000d1
:10579400110098000c0037002e009000a00090002b
:1057a400410798002e00900020009000900078009f
:1057b4002e009000210098004e00900011ec07008c
:1057c4000000eb00400798002e009000200090009d
:1057d4000000e000f0ff3a002e00900009ec070002
:1057e4000000eb00200798003e009000100090009d
:1057f4000000e000dfff3a003e00900001ec0700eb
:105804000000eb00300798001e0090000000e0004c
:10581400d2ff3a000000eb0010179800090037008f
:105824006e489000ace8b7000e5890000080fb0072
:10583400904588009e009000b1458800100020002b
:10584400101798001e1090000080fa000000060057
:105854000800fa00604798006e4090000004e000e1
:1058640021003a00b0458000100798001a00370064
:105874001e00900090009000010f78001100370086
:105884001e007800a000900021079800080037004f
:105894002e019000b240900070cfb30000c06000b1
:1058a400304198002e009000900078002107980065
:1058b4002e0090000000e000f5ff3a001e00780082
:1058c400100f78001e00e000edff3a001e0090006b
:1058d40090007800110798001e0090000000e0007e
:1058e400e3ff3a000b0037006e4090004af60700d1
:1058f400200798002e0090000000e0000500320010
:105904002e019000b240900070cfb30000c0600040
:10591400304198000080fa00000006000400fa00fc
:105924002047980031479800d0c5b300004f780055
:10593400bac8bf00614060000004e0000200320009
:1059440000c8b3001e4f700010458000305890000e
:10595400634060000004e00002003a00f0ceb300af
:105964001e4f600010458000305890006340600076
:10597400e14f500002003a00e0cfb3001e4f600038
:105984001e80fb0050258800aec8bf000080fb00cd
:10599400b02488003e4090000080fb004401dd00fc
:1059a4002e4090008080fb00f00720000080600003
:1059b40000007100f0248800a688a8000080fa0086
:1059c400000006000600fa00404798004e40900090
:1059d400e94f500017003a0000a02000000f7800a3
:1059e400bac8bf00704060000004e000020032004a
:1059f40040a02000000f7800bac8bf000080fb0060
:105a04004400de006140600000c0ea0061406000c4
:105a1400614060004401dd00a18b200091407800ca
:105a2400f0ceb30000c0600002407000bae8b700d6
:105a34001600370080a02000000f7800bac8bf000d
:105a44000042b2000004e00002003200c0a02000c6
:105a5400000f7800bac8bf000080fb004500de00dc
:105a64006140600000c0ea00614060006140600085
